:020000040000fa
:080000000050040000000000a4
:020000040000fa
:10000800e40e0000ea0e0000f00e0000f80e0000fa
:10001800000f0000e40e0000e40e0000e40e0000f3
:10002800e40e0000e40e0000e40e0000500b000097
:10003800e40e0000e40e0000e40e0000e40e0000f0
:10004800e40e0000e40e0000e40e0000e40e0000e0
:10005800e40e0000e20c0000e40e0000e40e0000d4
:10006800e40e0000e40e0000e40e00006a0d00003b
:10007800e40e0000e40e0000e40e0000e40e0000b0
:10008800e40e0000e40e0000e40e0000e40e0000a0
:10009800e40e0000e40e0000960d0000e40e0000df
:1000a800e40e0000e40e0000e40e0000e40e000080
:1000b800e40e0000e40e0000e40e0000e40e000070
:1000c800e40e0000e40e0000e40e0000e40e000060
:1000d800e40e0000e40e0000e40e0000e40e000050
:1000e800e40e0000e40e0000e40e0000e40e000040
:1000f800e40e0000e40e0000e40e0000e40e000030
:10010800e40e0000e40e0000e40e0000e40e00001f
:10011800e40e0000e40e0000e40e0000e40e00000f
:10012800e40e0000e40e0000e40e0000e40e0000ff
:10013800e40e0000e40e0000e40e0000e40e0000ef
:10014800e40e0000e40e0000e40e0000e40e0000df
:10015800e40e0000e40e0000e40e0000e40e0000cf
:10016800e40e0000e40e0000e40e0000e40e0000bf
:10017800e40e0000e40e0000e40e0000e40e0000af
:10018800e40e0000e40e0000e40e0000e40e00009f
:10019800e40e0000e40e0000e40e0000e40e00008f
:1001a800e40e0000e40e0000e40e0000e40e00007f
:1001b800e40e0000e40e0000e40e0000e40e00006f
:1001c800e40e0000e40e0000e40e0000e40e00005f
:1001d800e40e0000e40e0000e40e0000e40e00004f
:1001e800e40e0000e40e0000e40e0000e40e00003f
:0801f800e40e0000e40e00001b
:020000040000fa
:10020800e40e0000ea0e0000f00e0000f80e0000f8
:10021800000f0000e40e0000e40e0000e40e0000f1
:10022800e40e0000e40e0000e40e0000500b000095
:10023800e40e0000e40e0000e40e0000e40e0000ee
:10024800e40e0000e40e0000e40e0000e40e0000de
:10025800e40e0000e20c0000e40e0000e40e0000d2
:10026800e40e0000e40e0000e40e00006a0d000039
:10027800e40e0000e40e0000e40e0000e40e0000ae
:10028800e40e0000e40e0000e40e0000e40e00009e
:10029800e40e0000e40e0000960d0000e40e0000dd
:1002a800e40e0000e40e0000e40e0000e40e00007e
:1002b800e40e0000e40e0000e40e0000e40e00006e
:1002c800e40e0000e40e0000e40e0000e40e00005e
:1002d800e40e0000e40e0000e40e0000e40e00004e
:1002e800e40e0000e40e0000e40e0000e40e00003e
:1002f800e40e0000e40e0000e40e0000e40e00002e
:10030800e40e0000e40e0000e40e0000e40e00001d
:10031800e40e0000e40e0000e40e0000e40e00000d
:10032800e40e0000e40e0000e40e0000e40e0000fd
:10033800e40e0000e40e0000e40e0000e40e0000ed
:10034800e40e0000e40e0000e40e0000e40e0000dd
:10035800e40e0000e40e0000e40e0000e40e0000cd
:10036800e40e0000e40e0000e40e0000e40e0000bd
:10037800e40e0000e40e0000e40e0000e40e0000ad
:10038800e40e0000e40e0000e40e0000e40e00009d
:10039800e40e0000e40e0000e40e0000e40e00008d
:1003a800e40e0000e40e0000e40e0000e40e00007d
:1003b800e40e0000e40e0000e40e0000e40e00006d
:1003c800e40e0000e40e0000e40e0000e40e00005d
:1003d800e40e0000e40e0000e40e0000e40e00004d
:1003e800e40e0000e40e0000e40e0000e40e00003d
:0803f800e40e0000e40e000019
:020000040000fa
:100400006fb120000eff20000e01880000000000e8
:10041000000020000000e000020032000001200087
:10042000200288000c000700e04c210001002000a1
:1004300011000700000020000000e0000200320070
:1004400000000200000000007a130200000000001b
:100450000040da000000fe004440a9000020200017
:100460000000e0000300320000002000a00188002e
:100470004440a80000000600910188008000780038
:100480000000eb0015003700e280400032a0b4000d
:100490009101ba00e280400032a0b4009102ba009b
:1004a000e280400032a0b4000002eb00472bde00e7
:1004b000f507b200602ce10004003a000059eb009f
:1004c0008301e900fdff3e00040037006128e100e0
:1004d000010032000082eb000b00070011c3ba00dc
:1004e0001101ba000604e00003003a000200e00037
:1004f000e5ff3a0000000600f607b200960188000a
:1005000082007800f5ff37003159ba008301e90015
:100510000c0032002159ba008301e90008003200c2
:100520000400e00003003a00e280400032a0b40082
:10053000f5ff370011d9ba008301e900faff3a004c
:100540008100e800e180400032a0b4000000060015
:10055000839f68000100e00002003d006000100081
:10056000e08018000300e00002003d00600111007f
:10057000e08119006c0007004f00e00002003b0022
:1005800060001000e0801800000006000001be00be
:100590001b0007000470a70003f0a10003f8a300ec
:1005a00013003a006509b10010003200090035005f
:1005b0006928e10002003500010028000000050064
:1005c00000004000818048008502e900fcff3a00fd
:1005d00000000600f88f4200050035008100d100c0
:1005e0000080d3008502e800fcff3a00000006000e
:1005f0008000eb00000005006011b8005a003700d1
:10060000c70ade00f107b200f50fb20008003200a1
:10061000e1cf4200020032000170a000240005007a
:10062000810f70000100320004080500440005003d
:10063000810f700002003a00140005008502e900f5
:100640000000400081c04800fcff3b000170a0009a
:1006500024000500889fbe008a9fbe008c1f780082
:100660000004be00e6ff07000478a30026003a005d
:100670006120e1002500320009f8a30025003a00be
:100680006420e10021003200f507b1000508a30055
:100690000200320000004000818048006044b80041
:1006a000031020000200200000004000818048006c
:1006b0000805440089854c000a0541008b854900e6
:1006c0000a0550008b855800030033000a00be0065
:1006d00002047400838474008301d1000281d3007a
:1006e000830f7100f0ff3a008904d1000884d30021
:1006f0006001490082017800c1adde00fb07b00057
:1007000048000700760037000960a0000800be001e
:100710007300370012022000a2588800f0ff2f005b
:10072000f1ff27006e0037006022b80006022000ab
:100730000000d0008180d2000482d2008582d200e5
:100740000000a0000202520083825a000300310020
:100750000202420083824a000000a1000603e90071
:10076000f3ff3a0000000600889fbe008a9fbe008b
:1007700000827000040271000482710026003200c1
:100780000004be000200be006011b8006b0920002a
:10079000950220000182cf000a0039000541b10016
:1007a0000082cf00070039000541b1000982cf0067
:1007b000040039000541b1000882cf000100390072
:1007c0000541b10005425200120032000a003b0010
:1007d00082817100610164008100d1000080d3003a
:1007e0008984d3000884d3008b05e8000442e80024
:1007f000f7ff3a00070037000804440089844c00e2
:1008000000004800818048008b05e9000442e900af
:10081000f9ff3a00030007004f05be004f04be0079
:100820000000060081002000618055000b003d00a3
:100830000b00200061fe2f000100e1001d003400cc
:1008400082817100610164008904d1000884d300b1
:100850000000e800faff3a00710020006100640027
:1008600003007000020060000900320061044400cf
:10087000e0844c000988a500050032008b05e800e3
:100880006808e10002003a008904d1000884d3001e
:10089000f20f20000258e10005003d00c75ddd00b9
:1008a000f907b20089807500080078000000060092
:1008b0000bf827008b007800000005000200be0046
:1008c0006450e100050036006420e10002003600bb
:1008d0000968a30001003a000800be000160a00002
:1008e0004f0678004f05be004f04be000000060012
:0c08f000f0ff2f00f1ff2700f9ff370098
:020000040000fa
:1008fc0000000000211000004220000063300000c6
:10090c0084400000a5500000c6600000e7700000a5
:10091c0008810000299100004aa100006bb1000081
:10092c008cc10000add10000cee10000eff1000061
:10093c00311200001002000073320000522200003d
:10094c00b552000094420000f7720000d66200001d
:10095c0039930000188300007bb300005aa30000f9
:10096c00bdd300009cc30000fff30000dee30000d9
:10097c006224000043340000200400000114000035
:10098c00e6640000c7740000a44400008554000015
:10099c006aa500004bb500002885000009950000f1
:1009ac00eee50000cff50000acc500008dd50000d1
:1009bc0053360000722600001116000030060000ad
:1009cc00d7760000f666000095560000b44600008d
:1009dc005bb700007aa70000199700003887000069
:1009ec00dff70000fee700009dd70000bcc7000049
:1009fc00c4480000e558000086680000a778000095
:100a0c004008000061180000022800002338000094
:100a1c00ccc90000edd900008ee90000aff9000050
:100a2c0048890000699900000aa900002bb9000050
:100a3c00f55a0000d44a0000b77a0000966a00000c
:100a4c00711a0000500a0000333a0000122a00000c
:100a5c00fddb0000dccb0000bffb00009eeb0000c8
:100a6c00799b0000588b00003bbb00001aab0000c8
:100a7c00a66c0000877c0000e44c0000c55c000004
:100a8c00222c0000033c0000600c0000411c000004
:100a9c00aeed00008ffd0000eccd0000cddd0000c0
:100aac002aad00000bbd0000688d0000499d0000c0
:100abc00977e0000b66e0000d55e0000f44e00007c
:100acc00133e0000322e0000511e0000700e00007c
:100adc009fff0000beef0000dddf0000fccf000038
:100aec001bbf00003aaf0000599f0000788f000038
:100afc0088910000a9810000cab10000eba10000a0
:100b0c000cd100002dc100004ef100006fe100007f
:100b1c0080100000a1000000c2300000e3200000a3
:100b2c000450000025400000467000006760000083
:100b3c00b983000098930000fba30000dab3000017
:100b4c003dc300001cd300007fe300005ef30000f7
:100b5c00b102000090120000f3220000d23200001b
:100b6c0035420000145200007762000056720000fb
:100b7c00eab50000cba50000a8950000898500000f
:100b8c006ef500004fe500002cd500000dc50000ef
:100b9c00e2340000c3240000a01400008104000013
:100bac0066740000476400002454000005440000f3
:100bbc00dba70000fab7000099870000b897000087
:100bcc005fe700007ef700001dc700003cd7000067
:100bdc00d3260000f236000091060000b01600008b
:100bec00576600007676000015460000345600006b
:100bfc004cd900006dc900000ef900002fe900006f
:100c0c00c8990000e98900008ab90000aba900006e
:100c1c004458000065480000067800002768000072
:100c2c00c0180000e108000082380000a328000072
:100c3c007dcb00005cdb00003feb00001efb0000e6
:100c4c00f98b0000d89b0000bbab00009abb0000e6
:100c5c00754a0000545a0000376a0000167a0000ea
:100c6c00f10a0000d01a0000b32a0000923a0000ea
:100c7c002efd00000fed00006cdd00004dcd0000de
:100c8c00aabd00008bad0000e89d0000c98d0000de
:100c9c00267c0000076c0000645c0000454c0000e2
:100cac00a23c0000832c0000e01c0000c10c0000e2
:100cbc001fef00003eff00005dcf00007cdf000056
:100ccc009baf0000babf0000d98f0000f89f000056
:100cdc00176e0000367e0000554e0000745e00005a
:100cec00932e0000b23e0000d10e0000f01e00005a
:020000040000fa
:100cfc000200fa0000c0eb0000e9b7001bcabf00fd
:100d0c00e14f4000020032001bcabf000100370057
:100d1c00e0cfb30001e9b7001acabf00e14f4000b1
:100d2c00020032001acabf0001003700e0cfb30046
:100d3c0002e9b7001dcabf00e14f400002003200bb
:100d4c001dcabf0001003700e0cfb30003e9b700b4
:100d5c001ccabf00e14f4000020032001ccabf0099
:100d6c0001003700e0cfb30004e9b7001fcabf0091
:100d7c00e14f4000020032001fcabf0001003700e3
:100d8c00e0cfb30005e9b7001ccabf00e14f40003b
:100d9c00020032001ecabf0001003700e0cfb300d2
:100dac0006e9b700111680000004200000806000e6
:100dbc000000e0000200320020c3b3000100370045
:100dcc0010c0b30007e9b700800020001050880065
:100ddc0087e0a9000000eb00000f78000e00370040
:100dec0000000000911180000010200000806000c5
:100dfc000000e000fbff32001e0078000190200094
:100e0c0081004000914078008180fb00a111880096
:100e1c000000e800000f78009e0078001050800061
:100e2c00808f5000eeff39007158800000022000c6
:100e3c000100700070588800400620003057880070
:100e4c000080fa00000006000200fa000000eb002f
:100e5c00000f78000e003700000000009111800098
:100e6c0000102000008060000000e000fbff32005a
:100e7c001e00780001902000810040009140780015
:100e8c008180fb00a11188000000e800000f7800b1
:100e9c009e00780010508000808f5000eeff3900cb
:100eac000000000091118000001020000080600004
:100ebc000000e000fbff32007158800000022000af
:100ecc0001007000705888004006200030578800e0
:100edc000080fa00000006000200fa0010c0b30007
:100eec0000e9b7000169ef00105080000040780065
:100efc000040e90002e9b70000c8b30004e9b700fc
:100f0c00105080000000e9000001eb008000780028
:100f1c001090200075060700000f7800105080001c
:100f2c001e41900001902000810040008248780012
:100f3c000000e80010508800105080001e4178001e
:100f4c000190200081004000824878000000e800f9
:100f5c0010508800705880000010a0007058880055
:100f6c000080fa00000006000000fa0002c8bf0072
:100f7c000080fb002050880003c8bf000080fb00ed
:100f8c003050880004c8bf000080fb00405088002f
:100f9c00205080000040780003e9b70010002000ca
:100fac0060508800600020001050880020508000a5
:100fbc0001022000810f50001200320001022000bb
:100fcc00810f500005003e00fd0f50005201320011
:100fdc00fe0f50004b01320090013700d10f200062
:100fec00810f500051013200e10f2000810f5000a1
:100ffc006801320011022000810f50001c003200e9
:10100c008601370050c0b30006e9b70010c0b3002a
:10101c0007e9b7000869ef0010c0b30009e9b70091
:10102c000dcbbf000ae9b7000ccbbf000be9b70032
:10103c000bcbbf000ce9b7000acbbf000de9b70022
:10104c0020588000004078000ee9b700511680004f
:10105c0000382000008060004700de00004078006f
:10106c000fe9b70000012000105088006e01370016
:10107c0030508000e10f500003003200e20f5000ae
:10108c009e0032001b013700405080000040780069
:10109c0006e9b70010c0b30007e9b7004050800064
:1010ac00e30f500047003200e30f500005003e00f4
:1010bc00e10f500008003200e20f50000c0032002b
:1010cc0087003700e40f50004f003200e50f50004e
:1010dc006a003200820037002058800000407800ff
:1010ec0008e9b700900020001050880082003700fb
:1010fc00c0c0b30007e9b70020558000315580000f
:10110c004a09dd004600de0000007100c608de0062
:10111c00705088008150880011cabf0008e9b700e0
:10112c0010cabf0009e9b7000fcabf000ae9b7002f
:10113c000ecabf000be9b700405580005155800026
:10114c004a09dd004600de0000007100c608de0022
:10115c00705088008150880011cabf000ce9b7009c
:10116c0010cabf000de9b7000fcabf000ee9b700e7
:10117c000ecabf000fe9b7006055800071558000a2
:10118c004a09dd004600de0000007100c608de00e2
:10119c00705088008150880011cabf0010e9b70058
:1011ac0010cabf0011e9b7000fcabf0012e9b7009f
:1011bc000ecabf0013e9b700400120001050880090
:1011cc004d00370040c0b30007e9b700e055800080
:1011dc008000eb00705088008150880011cabf005d
:1011ec0008e9b70010cabf0009e9b7000fcabf0071
:1011fc000ae9b7000ecabf000be9b700c000200017
:10120c00105088003c003700c0c0b30007e9b7009d
:10121c009bcabf0008e9b7009acabf0009e9b7002a
:10122c0099cabf000ae9b70098cabf000be9b7001a
:10123c009fcabf000ce9b7009ecabf000de9b700fa
:10124c009dcabf000ee9b7009ccabf000fe9b700ea
:10125c00a3cabf0010e9b700a2cabf0011e9b700ca
:10126c00a1cabf0012e9b700a0cabf0013e9b700ba
:10127c0040012000105088001f00370040c0b30010
:10128c0007e9b700c2548000d3548000e0548000ba
:10129c00f154800002014000838148000055800019
:1012ac001155800002004000838048007050880077
:1012bc008150880011cabf0008e9b70010cabf00ee
:1012cc0009e9b7000fcabf000ae9b7000ecabf0090
:1012dc000be9b700c0002000105088000600370052
:1012ec0020002000605088000769ef00800020007b
:1012fc0010508800000000008100370005c8bf00b6
:10130c000080fb005050880050508000e20f5000cd
:10131c0010003200e20f500003003e00e10f5000bd
:10132c000600320033003700e40f50000f0032008b
:10133c00ec0f5000160032002e00370006c8bf001c
:10134c000080fb008000eb0070508800815088000a
:10135c002b003700102aef0006c8bf000feab700b9
:10136c0007c8bf000eeab7002500370006c8bf004b
:10137c0011eab70007c8bf0010eab70008c8bf00e1
:10138c000feab70009c8bf000eeab7001c0037000f
:10139c0006c8bf0011eab70007c8bf0010eab700c3
:1013ac0008c8bf000feab70009c8bf000eeab700b3
:1013bc000ac8bf0015eab7000bc8bf0014eab70093
:1013cc000cc8bf0013eab7000dc8bf0012eab70083
:1013dc000ec8bf0019eab7000fc8bf0018eab70063
:1013ec0010c8bf0017eab70011c8bf0016eab70053
:1013fc0003003700f00f2000405088000000000070
:10140c0040508000e40f50000d003200e50f5000fa
:10141c001c003200e10f500032003a007050800086
:10142c00e10f5000030036002000200060508800bf
:10143c000200370070508000205888002c003700c4
:10144c007050800081508000c0548800d1548800b6
:10145c0090508000a1508000e0548800f154880026
:10146c00b0508000c1508000005588001155880094
:10147c007158800000102000010070007058880026
:10148c001b0037007050800081508000320020001b
:10149c0003002000a1fc07007050880081508800d8
:1014ac007050800081508000c0548800d154880056
:1014bc007050800081508000e0548800f154880006
:1014cc0070508000815080000055880011558800b4
:1014dc0071588000001020000100700070588800c6
:1014ec00030037002000200060508800000000003e
:1014fc0003003700f00f200060508800000000004f
:10150c00490037007158800000082000010070006d
:10151c007058880044003700715880000000280083
:10152c0001007000705888003f0037003050800078
:10153c0011082000810f5000040032002108200007
:10154c00810f5000070032000e0037001058800049
:10155c000040780006e9b7007000200010508800a9
:10156c000b003700405080000000e0000300320008
:10157c00100020001058880001003700022bef00eb
:10158c00030037002000200060508800000000009d
:10159c002500370030508000e10f5000030032006e
:1015ac00e20f50000800320018003700ffcabf00dd
:1015bc0006e9b700fecabf0007e9b70080002000ab
:1015cc00105088001400370040508000e10f50008c
:1015dc0003003200e20f5000070032000a0037000f
:1015ec001000200040578800c262a90000000000d3
:1015fc00c242a80004003700c242a900000000004b
:10160c00c262a80000000000030037002000200088
:10161c00605088000000000003003700f00f20002d
:10162c00605088000000000060508000004078008e
:10163c0005e9b70028fe07000080fa00000006004c
:10164c000000fa00d42aef00100020000057880098
:10165c00e82aef00e22aef00e42aef00de2aef008e
:10166c00ec2aef00ee2aef00f02aef00f22aef004e
:10167c00f42aef00f62aef00f82aef000080eb00c6
:10168c008080eb00d0578800e15788000080fa007a
:10169c0000000600809fbe00829fbe000000fa0082
:1016ac00205780000000e00010003a0000022000eb
:1016bc001008880041e3a800000000004043a80087
:1016cc00005780000000e000b60032004057800058
:1016dc000000e00001003a00c242a9000000000036
:1016ec00c2c2a900e02aef00ae00370020578000ec
:1016fc00f30f500002003e004043a800a900370041
:10170c00003d20001008880041e3a900e42aef0006
:10171c00715880000004200001007000705888008f
:10172c00105880000000e000030032007058800068
:10173c000020a000705888008058800091588000cc
:10174c00e00f5000e08f58000600320080588000f7
:10175c009158800061005000e0805800805888004b
:10176c0091588800a05580000000e000190032005c
:10177c00b0578000c157800061004000e0804800f5
:10178c00b0578800c1578800b2578000c3578000fb
:10179c00d0578000e1578000800f5100818f590095
:1017ac000c0036008058800091588000e00f5000eb
:1017bc00e08f580001003200c242a8000000000077
:1017cc00c2c2a8001000200000578800f62aef00c3
:1017dc00f82aef00905780000000e000140032005f
:1017ec00a05780000000e00004003a0070002000c8
:1017fc00a0578800c242a8000d003700a0578000f7
:10180c000000e900a0578800a05780000000e0000d
:10181c0003003a00905780000000e90090578800c0
:10182c00a0578000e50f500001003a00c242a90009
:10183c0050168000640060000000e00013003a00c5
:10184c0060578000e10f500004003e00605780009c
:10185c000000e800605788000a00370060578000dd
:10186c00e20f500007003a00c242a8006057800007
:10187c000000e80060578800805780000000e800f6
:10188c0080578800ee2aef00260037007057800042
:10189c00e20f500001003a00c242a90070578000cc
:1018ac00fd0f500004003e00705780000000e8005f
:1018bc00705788001a00370070578000fe0f5000d8
:1018cc0017003a00705780000000e800705788003d
:1018dc0080578000e10f500003003200e70f5000ea
:1018ec00080032000d003700009421001100200088
:1018fc00805888009158880010002000905788006c
:10190c0006003700c262a800715880000008200051
:10191c00010070007058880000000000f02aef00f1
:10192c00ec2aef00305780000000e000100032007d
:10193c00405780000000e0000d003a001058800075
:10194c000000e0000a003a00305780000000e90077
:10195c0030578800305780000000e00004003a0047
:10196c0071588000f0fd2f000080600070588800d6
:10197c00f05680000000e00007003200f0568000b6
:10198c000000e900f0568800f05680000000e000ee
:10199c0001003a00d42aef00f05780000020a0008c
:1019ac00f05788008460a9000080fa004f01be0047
:1019bc004f00be0000400600809fbe00829fbe000c
:1019cc000000fa004043a900205780000218800054
:1019dc004118800001014100811880000101410083
:1019ec00c118800081004100c208de0000014000e7
:1019fc0000a2200000004100010878002057800060
:101a0c0012188000511880000101410091188000cb
:101a1c0001014100d118800081004100c208de00a4
:101a2c00740040000001400000a2200000004100b2
:101a3c00010878002057800022188000611880006f
:101a4c0001014100a118800001014100e118800052
:101a5c0081004100c208de008002b000000140009d
:101a6c0000a220000000410001087800311880001d
:101a7c007018800080804000b0188000808040008a
:101a8c00f0188000008040004200de006101b800c8
:101a9c00b0558000c1558000020040008380480092
:101aac00b0558800c1558800205780000000e80020
:101abc002057880085a0a9000080fa004f01be00c5
:101acc004f00be0000400600809fbe000000fa00e0
:101adc00501680000000d100614060000080fb00c7
:101aec005057880062a0a9009660a90097c0a80072
:101afc0031e2a8003342a800715880000002200097
:101b0c000100700070588800400620003057880093
:101b1c008660a9000080fa004f00be00004006005d
:101b2c00809fbe00821f78000000fa009a003700e8
:101b3c004006200030578800b0118000004078002b
:101b4c00d2eab70090118000620060000000e00053
:101b5c00020032003222a900d42aef0040012000fa
:101b6c00f0568800a0568000e20f50003200320080
:101b7c00e20f500005003e000000e0000a003200b9
:101b8c00e10f5000100032007e003700e40f5000cf
:101b9c005d003200e40f50003d003900e50f5000ad
:101bac005e00320077003700d2cabf00e14f500010
:101bbc0076003a00d82aef00002aef00100020002f
:101bcc00a056880074003700d2cabf008080fb008a
:101bdc00c05680004800de0000806800d0568800a7
:101bec00d056800080004000e04728000080400074
:101bfc0090007800c05680004800dd00008068002e
:101c0c00c0568800d2cabf00d7eab7000050800087
:101c1c0022ad20001241780001802000810040009c
:101c2c00824878000000e800005088002000200066
:101c3c00a056880058003700d2cabf00d6eab700b9
:101c4c00b1568000e00f2000808f500004003e0051
:101c5c00b0568000e20f50000b003e000100370030
:101c6c000000000091118000001020000080600036
:101c7c000000e000fbff320030052000a0118800be
:101c8c00d42aef004400370030002000a056880012
:101c9c00d2cabf008080fb00c05680004800de0026
:101cac0000806800d0568800d0568000800040002c
:101cbc00e04728000080400090007800c05680006b
:101ccc004800dd0000806800c0568800005080008d
:101cdc0022ad2000124178000180200081004000dc
:101cec00824878000000e80000508800b15680005f
:101cfc0000508000808f500026003e0040002000e5
:101d0c00a056880024003700d2cabf00ddeab70015
:101d1c0050002000a05688001f003700d2cabf0018
:101d2c00dceab700e1568000c0568000808f50007e
:101d3c000c003a00000000009111800000102000ff
:101d4c00008060000000e000fbff3200600020001b
:101d5c00a0118800705880000000a0007058880006
:101d6c0008003700000000009111800000102000d6
:101d7c00008060000000e000fbff320050012000fa
:101d8c00a0118800d42aef000300370000000000e7
:101d9c00010037000000000090118000610060001d
:101dac000000e00062ff3a0087c0a9000080fa0042
:101dbc004f0178004f00be00004006000000fa0002
:101dcc00c262a800ffff37000000fa008020a900c3
:101ddc00ffff37000000fa008060a900c262a80073
:101dec00ffff37000000fa008040a900c262a80083
:101dfc00ffff37000000fa008080a900c262a80033
:101e0c00ffff37000000fa0000472000001a88008e
:101e1c00c0432000101a880000102800201a8800e7
:101e2c0000002100a01a8800a0002000401a8800a1
:101e3c005623ef005823ef0000402000701a880052
:101e4c0000c02100801a88006023ef006223ef009d
:101e5c0085a0a900500580000040a0000050a10002
:101e6c000060a1005005880095a0a80041e3a800df
:101e7c000021ef00d00c200010088800200020006a
:101e8c00200888002005800000c0a00000d0a00021
:101e9c0000e0a100200588008460a9009460a800df
:101eac0005e1a8008660a9006ea0a90056a0a900b3
:101ebc006005800000c0a10000d0a10000e0a000df
:101ecc00600588000080fa00000006000000fa009f
:101edc00800120008011880000112c0090118800d6
:101eec0070002000c011880097e0a90090058000c8
:101efc000080a1000090a00000a0a1009005880027
:101f0c0097c0a80031e2a8003342a80087e0a900de
:101f1c000080fa00000006000000fa00fe2aef0024
:101f2c00002bef00042bef000002200070588800fb
:101f3c00400620003057880000942100110020003a
:101f4c008058880091588800022bef000080fa001e
:101f5c00000006000000fa0070588000620060006b
:101f6c000000e0001e003a0031e2a90097c0a90071
:101f7c0087c0a90005e1a9009460a9008460a900ac
:101f8c0041e3a90095a0a90085a0a9009660a9002d
:101f9c0062a0a9008660a90000052400003b88000f
:101fac000500fc0050052000303b8800a00a2000f2
:101fbc00303b880061e7a800000000000000000032
:101fcc0000000000013b8000000028000080600041
:101fdc000000e000fbff3a000000fe0001003700ab
:101fec00000000000080fa00000006000000fa006b
:101ffc00f0c7b30032e0b70000e02f001000ba00c9
:10200c000058880001588000505a2a00808f5000d8
:10201c0013003a0020e02f001000ba00d0548800c2
:10202c0040e02f001000ba00c054880060e02f0080
:10203c001000ba00f054880080e02f001000ba00a5
:10204c00e0548800a0e02f001000ba001055880062
:10205c00c0e02f001000ba000055880008003700bf
:10206c00505a2a0000588800982aef009a2aef004c
:10207c009c2aef009e2aef00a02aef00a22aef0074
:10208c00020007000080fa00000006000000fa00c1
:10209c00f0c7b30032e0b70040002400003b8800da
:1020ac000158800000e02f000108bb000500fc0077
:1020bc0050052000303b8800a00a2000303b8800ef
:1020cc0061e7a80000000000000000000000000014
:1020dc00013b800000002800008060000000e00050
:1020ec00fbff3a00020007000080fa000000060027
:1020fc000400fa00100020001007980020e02f00c8
:10210c00f10720003058880041588800f0c7b30010
:10211c0032e0b7000000eb00000f7800240037001d
:10212c0040002400003b88001e0078000000d10015
:10213c009e00900000004000010040008000400024
:10214c0080a920000080400090007800305880006a
:10215c000108bb000500fc0050052000303b880046
:10216c00a00a2000303b880061e7a80000000000b6
:10217c000000000000000000013b8000000028006f
:10218c00008060000000e000fbff3a003058800047
:10219c000080e800305888001e0090000000a2006b
:1021ac00100798001e0078000000e800000f78006f
:1021bc001e007800e50f5000d9ff36000080fa00b1
:1021cc00000006000800fa0010002000000f780044
:1021dc00f0c7b30032e0b70000e02f001000ba00e7
:1021ec00005888000058800020079800ae0090002e
:1021fc00505a2a00808f50001d003a0020e02f001a
:10220c0010079800150037001e0090001000ba004f
:10221c00300798001e0090000080e800100798001e
:10222c001e0090001000ba00200798001e009000bd
:10223c000080e800100798002e019000be0190006d
:10224c000080eb008080eb00800f5100818f5900e3
:10225c0002003a000000eb00000f78009e00900096
:10226c00d0e02f00808f5000e7ff360002003700cf
:10227c000000eb00000f78001e0078000000e0006a
:10228c0003003200f05780000000a000f0578800d7
:10229c000080fa00000006000000fa00b02aef00ef
:1022ac000900370080558000c200dd0040aa2000e4
:1022bc00008140006000b8000089be00805580009d
:1022cc000000e8008055880080558000e20f500027
:1022dc00f4ff3600be2aef00b42aef00ba2aef0052
:1022ec00c22aef00c42aef000080fa0000000600aa
:1022fc000000fa00889fbe008a1f7800bc2aef00fd
:10230c00f05580000000e800f0558800b0558000c2
:10231c00c15580004201200003002000fff8070097
:10232c00b0558800c1558800b0558000c15580005b
:10233c000001be000000200001842300f7f8070014
:10234c001056880021568800b62aef00b82aef00f4
:10235c00b02aef00ba003700ca2aef00cc2aef00ef
:10236c00b22aef001800370080558000925580008b
:10237c007400b900000078000200400080004000aa
:10238c0000a2200000804000100078000056880059
:10239c0001568000005680000088b90000007800cb
:1023ac006101b80050568000615680000200400068
:1023bc0083804800505688006156880090558000f4
:1023cc000000e8009055880090558000f30f5000f5
:1023dc00e5ff360080558000e10f50000d00320003
:1023ec00e10f500003003900e20f500011003200e1
:1023fc001d00370051168000002020000080600076
:10240c000000e00013003a00ca2aef00cc2aef00cb
:10241c00150037005116800000102000008060006d
:10242c000000e0000d003a00ca2aef00cc2aef00b1
:10243c000d0037005116800000082000008060005d
:10244c000000e00007003a00ca2aef00cc2aef0097
:10245c0005003700000000000300370000000000fa
:10246c0001003700000000005056800061568000cb
:10247c00a200200003002000a8f807005056880096
:10248c0061568800505680006156800057f807004e
:10249c006df807003af8070030568800415688005e
:1024ac003256800043568000105680002156800022
:1024bc00009ab90004027800028bb90086027800f9
:1024cc00050242000010b8000102420084007800ae
:1024dc0030568800415688003056800041568000a6
:1024ec00026a2800130020008cf807003056880080
:1024fc004156880080558000c200dd0040aa2000b3
:10250c00008040001000be004a09dd004600de00dd
:10251c0000007100c608de007056880081568800e5
:10252c0084558000c220dd0040aa200000804000bd
:10253c001001be00705680008156800000005100d2
:10254c0081805900c221dd0042aa20000281410095
:10255c000089be0084558000c220dd0040aa200006
:10256c00008040001001be003056800041568000b3
:10257c000200400083804800c221dd0042aa2000f6
:10258c00028141000089be00705680008156800097
:10259c0080007800e055800000804000e055880005
:1025ac00f0558000f40f50001a0036008a55800058
:1025bc00c250dd0080a92000008040001004be0045
:1025cc007056800081568000420620000289b900b6
:1025dc00020178006002b900840178000301410017
:1025ec00430620000300b80001014100820078007e
:1025fc00420220000300200048f8070008004000b9
:10260c0089804800c251dd0082a92000028141006e
:10261c000089be0082558000705680008156800073
:10262c008000780002014100a0a1200000004100c0
:10263c0001087800805580000000e8008055880073
:10264c0080558000e20f500043ff3600f0558000ab
:10265c00f40f500001003600be2aef00e055800058
:10266c000000e0000b00320010002000a055880094
:10267c00e05580008000eb000001be0000942100ba
:10268c0011002000aff70700d0578800e1578800f1
:10269c0005003700b42aef000080eb008080eb00cf
:1026ac00d0578800e1578800d05580000000e80022
:1026bc00d0558800d155800000772100808f5000c4
:1026cc0005003600715880000010200001007000d9
:1026dc0070588800ba2aef004f0578004f04be00ee
:1026ec000080fa00000006000000fa002000200024
:1026fc00103a88004427ef004827ef000010210013
:10270c00003a8800100280000050a1000060a10077
:10271c000070a10010028800000220000016880042
:10272c000002200010168800e024ef00603927001a
:10273c0040168800ca22ef000000270010278800ee
:10274c003260ef0040ff24001000ba00605888008f
:10275c0060ff24001000ba0050588800cefe07001d
:10276c00b7fb0700ecfd070020fe070095fe0700f5
:10277c00a4fd0700d5fd0700705880000000e000a4
:10278c005000320070588000640060000000e000cf
:10279c000500320056f9070071588000b0ff2f0079
:1027ac000080600070588800715880000004200080
:1027bc00008060000000e00005003200ccfe070045
:1027cc0071588000f0fb2f0000806000705888006a
:1027dc0070588000680060000000e00004003200c7
:1027ec007158800070ff2f000080600070588800c6
:1027fc007058800061006000004078000004e00028
:10280c0005003200d8f9070071588000e0ff2f0056
:10281c000080600070588800705880006200600072
:10282c000000e0000500320087f9070071588000b5
:10283c00d0ff2f0000806000705888007158800015
:10284c0000102000008060000000e0000500320055
:10285c0027fe070071588000f0ef2f000080600009
:10286c0070588800715880000008200000806000bb
:10287c000000e00005003200b6fd07007158800032
:10288c00f0f72f00008060007058880070588000ae
:10289c000000e00005003d00705880006200600000
:1028ac000000e00001003a000000fe0071588000ba
:1028bc00f01f2800008060007058880000000000a5
:1028cc00adff370031e2a90097c0a90087c0a9006d
:1028dc008660a90062a0a8009660a80059e7a9002c
:1028ec0059e7a9000040fe00a3ff37000c00fa00d6
:1028fc003007980041079800520798004e0090004e
:10290c000000e00002003a00100221001e00370017
:10291c00de009000010f78000000eb00200798000b
:10292c00140037002e009000be0090000080400084
:10293c00104078008080fb001e0078004800de000c
:10294c0000806800100798001e0090008000400076
:10295c00e047280000804000900078001e007800be
:10296c004800dd00008f68002e0090000000e80099
:10297c0020079800ae0090004e009000808f500011
:10298c00e8ff39001e0078000080fa000000060005
:020000040000fa
:10299c000a0b00000a000000000000001a0a0000e8
:1029ac00b800000000000000fe0a00000c0000004f
:1029bc0000000000d20a00002c0000000000000003
:1029cc00000800001a02000000000000140b0000b8
:0c29dc000200000000000000f84f800026
:020000040000fa
:049fe8000000000075
:020000040000fa
:049fec000100000070
:020000040000fa
:049ff000000000006d
:020000040000fa
:089ff40000020400000000005f
:020000040000fa
:10a000004f9520000eff20000e0188000000000088
:10a01000000020000000e0000200320000012000eb
:10a02000200288000c000700e07a250001002000d3
:10a0300011000700000020000000e00002003200d4
:10a040000000020000000000de50020000000000de
:10a050000040da000000fe004440a900000020009b
:10a060000000e0000300320000002000a001880092
:10a070004440a8000000060091018800800078009c
:10a080000000eb0015003700e280400032a0b40071
:10a090009101ba00e280400032a0b4009102ba00ff
:10a0a000e280400032a0b4000002eb00472bde004b
:10a0b000f507b200602ce10004003a000059eb0003
:10a0c0008301e900fdff3e00040037006128e10044
:10a0d000010032000082eb000b00070011c3ba0040
:10a0e0001101ba000604e00003003a000200e0009b
:10a0f000e5ff3a0000000600f607b200960188006e
:10a1000082007800f5ff37003159ba008301e90079
:10a110000c0032002159ba008301e9000800320026
:10a120000400e00003003a00e280400032a0b400e6
:10a13000f5ff370011d9ba008301e900faff3a00b0
:10a140008100e800e180400032a0b4000000060079
:08a150000040da000000fe00ef
:020000040000fa
:10a158000000fa003e29ef00100037000000000060
:10a168009111800000102000008060000000e000d5
:10a17800fbff3200f049800021812000810040006f
:10a18800914078008180fb00a11188000000e80060
:10a19800f04988000000000000000000f14980003c
:10a1a800d0488000808f5000ecff39000080fa0012
:10a1b800000006000000fa0020002000103a880085
:10a1c8004427ef004827ef0000102100003a8800dc
:10a1d800100280000050a0000060a0000070a000e5
:10a1e80010028800000220000016880000022000eb
:10a1f80010168800e024ef00603927004016880018
:10a20800ca22ef00000027001027880070002000f5
:10a21800c0118800800020008011880000112800eb
:10a228009011880097e0a90097c0a90031e2a80022
:10a238003342a80087e0a9000021ef000080200039
:10a248001008880020012000200888008460a900e8
:10a258009460a90005e1a8001e29ef002029ef005d
:10a268000380200022002000f0488000014980007f
:10a27800be01070040ff240001002000f0488800cc
:10a2880001498800c380200022002000f048800097
:10a2980001498000b5010700a0ff2400010020004b
:10a2a800f0488800014988006380200022002000cf
:10a2b800f048800001498000ac0107003429ef0014
:10a2c8002429ef003629ef003829ef004029ef0054
:10a2d8004229ef004429ef004629ef002629ef0024
:10a2e800010037000000000090118000610060004c
:10a2f8000000e000a8003200b011800000407800a3
:10a3080022e9b70090118000620060000000e000c0
:10a31800020032003222a9002429ef0020498000df
:10a32800e20f50003d003200e20f500005003e00f1
:10a338000000e0000a003200e10f50001200320075
:10a348008f003700e40f50006d003200e40f50001a
:10a3580044003900e50f50006e00320088003700d5
:10a3680022c9bf00e14f500087003a002c29ef00b6
:10a378001c29ef0010002000204988004000200020
:10a38800304988008300370060498000c800de003b
:10a3980022c9bf000080fb0080806800f00f200009
:10a3a800008060005049880050498000c400de00e9
:10a3b800504980000080680050498800604980004a
:10a3c800c800dd00504980004c00dd008080680036
:10a3d800504980004500dd008080680050498000b9
:10a3e800008068006049880022c9bf0029e9b700d9
:10a3f800e048800022922000124178002185200048
:10a4080081004000824878000000e800e0488800a9
:10a4180020002000204988005e00370022c9bf00c4
:10a4280028e9b70041498000e0062000808f5000ed
:10a438000a00360000000000911180000010200082
:10a44800008060000000e000fbff320030052000c3
:10a45800a01188002429ef004e00370030002000aa
:10a468002049880060498000c800de0022c9bf007a
:10a478000080fb0080806800f00f200000806000f2
:10a488005049880050498000c400de0050498000cf
:10a49800008068005049880060498000c800dd00dd
:10a4a800504980004c00dd008080680050498000e1
:10a4b8004500dd0080806800504980000080680009
:10a4c80060498800e048800022922000124178000c
:10a4d8002185200081004000824878000000e800c3
:10a4e800e048880041498000e0488000808f5000a3
:10a4f80027003e0040002000204988002500370042
:10a5080022c9bf002fe9b700500020002049880069
:10a518002000370022c9bf002ee9b700714980002a
:10a5280060498000808f50000b003a000000000056
:10a538009111800000102000008060000000e00001
:10a54800fbff320060002000a011880010002000ee
:10a55800b049880009003700000000009111800010
:10a5680000102000008060000000e000fbff3200c7
:10a5780050012000a01188003629ef002629ef009d
:10a588002429ef0003003700000000000100370015
:10a59800000000004429ef00b04980000000e000fe
:10a5a8009b0032003629ef0054c8bf000080fb0032
:10a5b800d049880010002000e04988006000200091
:10a5c800d0488800d0498000e40f500033003200a2
:10a5d800e40f500005003e00e20f50001a00320060
:10a5e800e30f50003300320040003700fd0f5000e9
:10a5f8003b00320001022000810f50003b003a006e
:10a60800e0cfb30018e8b70010c0b30019e8b700ee
:10a618001a68ef0010c0b3001be8b7000dc8bf00f0
:10a628001ce8b7000ec8bf001de8b70010c8bf007f
:10a638001ee8b70011c8bf001fe8b700e0002000ff
:10a64800d04888002c003700c04980000000e00096
:10a6580003003a0030002000e04988002600370057
:10a668002169ef0057c8bf0020e9b70058c8bf00ec
:10a678001fe9b70059c8bf001ee9b700f0488000bd
:10a6880001498000f3000700f0488000014980007c
:10a698009b010700e0498800170037000502070002
:10a6a80010002000c049880010002000304a8800af
:10a6b800110037002169ef0057c8bf0020e9b70033
:10a6c80058c8bf001fe9b70059c8bf001ee9b70046
:10a6d800f048800001498000c401070006003700e7
:10a6e80010002000a049880003003700f00f200068
:10a6f800e04988000000000010c0b30012e8b7006d
:10a708001368ef00d0488000004078000040e9005e
:10a7180014e8b700d04980000040780015e8b70079
:10a7280000c8b30016e8b700e04980000040780090
:10a7380017e8b7003229ef0010002000f049880020
:10a748001e00370090498000c800de00f2498000f2
:10a758002081200000004100104078000080fb00ac
:10a7680080806800f00f2000008060008049880029
:10a7780080498000c400de008049800000806800b5
:10a788008049880090498000c800dd008049800029
:10a798004c00dd0080806800804980004500dd00b5
:10a7a80080806800804980000080680090498800a7
:10a7b800f04980000000e800f0498800f149800075
:10a7c800d0488000808f5000deff3900d0488000dc
:10a7d800329320001241780021812000810040003e
:10a7e800824878000000e800d0488800d0488000ff
:10a7f800229320001241780021812000810040002e
:10a80800824878000000e800d048880050fe070021
:10a8180020048000680060000000e000230032008f
:10a82800304980000000e000070032003049800015
:10a838000000e90030498800304980000000e0004d
:10a8480001003a002429ef00304a80000000e000af
:10a8580015003a00204a80000000e800204a8800dd
:10a86800101680004300de00614060000004a20072
:10a87800614060000080fb00610060004300dd0073
:10a888001216800071ff2f00810061000100700026
:10a8980010168800204a8000ea0f50000200360097
:10a8a80010002000a04988008460a900a049800009
:10a8b8000000e0008bfe32000000000091118000d3
:10a8c80000102000008060000000e000fbff320064
:10a8d800c04980000000e0000d003200004a8000fe
:10a8e8000000e00002003a003c29ef007efe37003d
:10a8f800104a80000000e00002003a000000fe005c
:10a9080079fe3700fa4f04000000000076fe370099
:10a9180006c8bf00e14f400011003a0007c8bf0059
:10a92800e14f40000e003a0008c8bf00e14f400068
:10a938000b003a0009c8bf00e14f400008003a0088
:10a948000ac8bf00e14f400005003a000bc8bf002d
:10a95800e14f400002003a000000fe0062fe3700ae
:10a96800fa4f0400000000005ffe37000a00fa00fa
:10a9780010079800210798003207980043079800ad
:10a988003e0090006300b90000007800300798008e
:10a998000000eb00000f78002e00900000407800c7
:10a9a80032e0b700240037001e0090001080ba0083
:10a9b800704a88001e0090001000ba00604a8800a3
:10a9c8001e007800ce00900080804000e2942000b5
:10a9d80012417800824878000000e800000f7800f3
:10a9e8001e007800ce00900080804000d2942000a5
:10a9f80012417800824878000000e800000f7800d3
:10aa08001e007800ce00900080804000c294200094
:10aa180012417800824878000000e800000f7800b2
:10aa28001e009000ae00900062004000e0804800e8
:10aa380010079800210798009e0078003e009000bb
:10aa4800808f5000d8ff39001e0078000080fa007f
:10aa5800000006000600fa00100798002107980079
:10aa68001e019000ae01900000fc2f00f1ff2f00a6
:10aa78000202780003017800800178000100780064
:10aa880003026200000061008000eb00c000dd00ee
:10aa9800000020000001be006120b8000001710024
:10aaa8008181710012079800230798001e01900009
:10aab800ae019000f0ff240001002000800f51003b
:10aac800818f59008b003e001e009000ae00900060
:10aad800e00f5000e08f58001d003a000000eb0026
:10aae800000f7800150037001e0178001e0078005e
:10aaf800e800400020852000008040009040780059
:10ab08006080200000004100014878001e007800a5
:10ab1800680140009e00780000802000008040000e
:10ab2800904078002085200000004100014878000e
:10ab38001e0078000000e800000f78001e00780072
:10ab4800e50f5000e8ff360010002000004a88009a
:10ab58001e019000ae01900000fc240001002000be
:10ab6800800f5100818f590020003a000000eb004f
:10ab7800000f7800170037001e00780062052000db
:10ab8800000141009e007800c08020000080400045
:10ab9800904078002085200000004100014878009e
:10aba8001e007800f2052000000141009e00780098
:10abb80060802000008040009040780020852000c0
:10abc80000004100014878001e0078000000e800fd
:10abd800000f78001e007800e50f5000e6ff3600f1
:10abe80010002000104a88004629ef002e0090002f
:10abf8000040780032e0b70040002400003b8800a5
:10ac080080002000000f78005369ef00270037000c
:10ac18001e007800218520008100400091407800c6
:10ac28008141780022952000034978000000e8005f
:10ac3800000f78001e007800218520008100400068
:10ac480091407800814178001295200003497800ee
:10ac58000000e800000f78001e0078002185200021
:10ac680081004000914078008141780002952000e1
:10ac7800034978000000e800000f7800814a80004e
:10ac88001e0090000108bb00914a80001e00900041
:10ac98000188bb001e009000ae00900062004000da
:10aca800e080480010079800210798009e0078006f
:10acb800d0062000808f5000d5ff360050052000b8
:10acc800303b8800a00a2000303b880061e7a800dc
:10acd800000000000000000000000000013b8000b0
:10ace80000002800008060000000e000fbff3a0040
:10acf80001003700000000000080fa000000060094
:10ad08000600fa0010079800210798002e0090000e
:10ad18000040780032e0b70080002000000f780083
:10ad28002b0037001e0090001080ba00704a88007f
:10ad38001e0090001000ba00604a8800e1942000cc
:10ad4800914078001e017800208520000000410015
:10ad58001040780080cf500012003a00d1942000b3
:10ad6800914078001e0078000001e800208520004e
:10ad7800000041001040780080cf500009003a00e0
:10ad8800c1942000914078001e0078000081e800fe
:10ad980020852000000041001040780080cf50003e
:10ada800020032000000eb000e0037001e00900089
:10adb800ae00900062004000e08048001007980054
:10adc800210798001e00780063004000000f7800fb
:10add8009e007800d0062000808f5000d1ff3600fa
:10ade800100020000080fa00000006000400fa00ad
:10adf800008fbe001e01be0000fc2f00f1ff2f00d7
:10ae080002027800030178008001780001007800d0
:10ae180003026200000061008000eb00c000dd005a
:10ae2800000020000001be006120b8000001710090
:10ae380081817100028fbe001e01be00f0ff240058
:10ae480001002000800f5100818f590016003e003c
:10ae58001e0090000040780032e0b7001e00780025
:10ae68008000eb000108bb0080052400003b88003f
:10ae780050052000303b8800a00a2000303b8800a5
:10ae880061e7a800000000000000000000000000ca
:10ae9800013b800000002800008060000000e00006
:10aea800fbff3a0001003700000000000080fa00b4
:10aeb800000006000000fa004829ef004a29ef00c8
:10aec8001b003700504a80000040780032e0b7008d
:10aed800404a80008000eb000108bb00a005240068
:10aee800003b880050052000303b8800a00a200065
:10aef800303b880061e7a800000000000000000067
:10af080000000000013b8000000028000080600075
:10af18000000e000fbff3a00404a8000514a8000f0
:10af28000010b0000180b000404a8800514a8800f3
:10af3800424a8000534a8000f0ff240001002000ac
:10af4800800f5100818f5900deff36000080fa0023
:04af580000000600ef
:020000040000fa
:10af5c00480900000c000000000000000008000080
:0caf6c004801000000000000bc578000fd
:020000040000fa
:04af780000000000d5
:020000040000fa
:0200000401f009
:04000000ffff0000fe
:020000040000fa
:0200000401f009
:04000800fdff0000f8
:020000040000fa
:0200000401f009
:04000c0038ff0000b9
:020000040000fa
:0200000401f009
:040010009bff000052
:020000040000fa
:0200000401f009
:0400140050ff000099
:020000040000fa
:0200000401f009
:04001800f4ff0000f1
:020000040000fa
:0200000401f009
:04001c00feff0000e3
:020000040000fa
:0200000401f009
:040020002fff0000ae
:00000001FF
